:1000000000200020F90000002B0800002B08000051
:100010002B0800002B0800002B0800002908000016
:100020002908000029080000290800002B0800000A
:100030002B080000290800002B0800002D080000F4
:100040002B0800002B0800002B0800002B080000E4
:100050002B0800002B0800002B0800002B080000D4
:100060002B0800002B0800002B0800002B080000C4
:100070002B0800002B0800002B0800002B080000B4
:10008000591300002B080000451600002B08000043
:10009000651800002B0800002B0800002B0800004A
:1000A0002B0800002B0800002B0800002B08000084
:1000B0002B0800002B0800002B0800002B08000074
:1000C0002B080000E90C00002B0800003D1C00007C
:1000D0002B0800002B0800002B0800002B08000054
:1000E00085090000DD090000750A0000490B0000C9
:1000F000DD0B00002B08000008B5444B4CF22052E9
:100100001A804DF628121A800E3B4FF010021A800A
:1001100000F094FB3E4A3F4B1A603F4A04331A609A
:100120003E4A136813F4807301D0002309E03C4970
:100130000B604FF4A851116003E03A4959589950A7
:100140000433394A394998188842F6D3384B02E0CB
:10015000002243F8042B374A9342F9D3364B00224E
:100160001A60364B0A321A70354B1A321A70843ABA
:10017000013B1A70334B1B7813F0020FFAD0314B4E
:100180001B7813F0100FFAD12E4B1B7803F00C03E1
:10019000082BF9D12C4B03221A703D3201331A700F
:1001A000284B1B7813F0200FFAD0264B1B7813F046
:1001B000400FFAD0254A264B1A60264B20221A708F
:1001C000204B1B7803F00C030C2BF9D1224B02229D
:1001D0001A60224A443B1A60214B4BF67F321A6068
:1001E0000722043B1A6062B600F0E1FF0C4B1B686B
:1001F00013F0010F02D01B4800F0B6FD03F072FEB1
:1002000000F01CFB00F05AFAFEE700BF0E2005408C
:10021000823F0400388004400100002B10D00340CE
:1002200014D003407060000010E7FF1FBCECFF1FFC
:10023000BCECFF1FD4F1FF1F08ED00E000500640AA
:1002400001400640064006400440064000000311FD
:10025000448004400040064048800440C01005002F
:1002600014E000E000DD6850FFFFFFFFFFFFFFFF2D
:10027000FFFFFFFFFFFFFFFFFFFFFFFFFFFFFFFF8E
:10028000FFFFFFFFFFFFFFFFFFFFFFFFFFFFFFFF7E
:10029000FFFFFFFFFFFFFFFFFFFFFFFFFFFFFFFF6E
:1002A000FFFFFFFFFFFFFFFFFFFFFFFFFFFFFFFF5E
:1002B000FFFFFFFFFFFFFFFFFFFFFFFFFFFFFFFF4E
:1002C000FFFFFFFFFFFFFFFFFFFFFFFFFFFFFFFF3E
:1002D000FFFFFFFFFFFFFFFFFFFFFFFFFFFFFFFF2E
:1002E000FFFFFFFFFFFFFFFFFFFFFFFFFFFFFFFF1E
:1002F000FFFFFFFFFFFFFFFFFFFFFFFFFFFFFFFF0E
:10030000FFFFFFFFFFFFFFFFFFFFFFFFFFFFFFFFFD
:10031000FFFFFFFFFFFFFFFFFFFFFFFFFFFFFFFFED
:10032000FFFFFFFFFFFFFFFFFFFFFFFFFFFFFFFFDD
:10033000FFFFFFFFFFFFFFFFFFFFFFFFFFFFFFFFCD
:10034000FFFFFFFFFFFFFFFFFFFFFFFFFFFFFFFFBD
:10035000FFFFFFFFFFFFFFFFFFFFFFFFFFFFFFFFAD
:10036000FFFFFFFFFFFFFFFFFFFFFFFFFFFFFFFF9D
:10037000FFFFFFFFFFFFFFFFFFFFFFFFFFFFFFFF8D
:10038000FFFFFFFFFFFFFFFFFFFFFFFFFFFFFFFF7D
:10039000FFFFFFFFFFFFFFFFFFFFFFFFFFFFFFFF6D
:1003A000FFFFFFFFFFFFFFFFFFFFFFFFFFFFFFFF5D
:1003B000FFFFFFFFFFFFFFFFFFFFFFFFFFFFFFFF4D
:1003C000FFFFFFFFFFFFFFFFFFFFFFFFFFFFFFFF3D
:1003D000FFFFFFFFFFFFFFFFFFFFFFFFFFFFFFFF2D
:1003E000FFFFFFFFFFFFFFFFFFFFFFFFFFFFFFFF1D
:1003F000FFFFFFFFFFFFFFFFFFFFFFFFFFFFFFFF0D
:10040000FFFFFFFFFFFFFFFFFFFFFFFFFEFFFFFFFD
:1004100008B54EF6BC40074BC1F6FF701B1A062B01
:1004200000D808BD40F20003C0F20003002BF8D052
:100430009847F6E7BFECFF1F08B54EF6BC404EF6F6
:10044000BC43C1F6FF70C1F6FF731B1A9B1003EB90
:10045000D373591000D108BD40F20002C0F200026F
:10046000002AF8D09047F6E710B54EF6BC44C1F626
:10047000FF74237873B9FFF7CBFF40F20003C0F29B
:1004800000032BB146F27000C0F20000AFF3008011
:100490000123237010BD00BF08B540F20003C0F275
:1004A00000034BB146F270004EF6C041C0F20000AE
:1004B000C1F6FF71AFF300804EF6BC40C1F6FF708D
:1004C00003682BB140F20003C0F2000303B1984768
:1004D000BDE80840FFF7B0BF00B50D2089B001218D
:1004E00000F0AAFC0120014600F0A6FC012000213A
:1004F00000F074FC0D20012100F070FC05200621A5
:10050000162229238DE80F00322304932523059317
:10051000022101230793069103480322042302F0DA
:100520009BFF09B000BD00BFD8ECFF1F064808B50F
:10053000B0F90830012B03D102F0B7FE002008BD4E
:1005400002F0B7FE012008BDD8ECFF1F30B5002334
:1005500085B00546194601AA995401330B2BFAD1EF
:10056000642000F011FE002401F042FF20B901F0E8
:100570003FFF0028FBD102E00A2C04D1F7E79DF8E9
:1005800004302B7005E001F019FF01AB1855013460
:10059000EAE705B030BDF0B5134BBDB04FF4003203
:1005A0001A60002404AE01277023002502930097EF
:1005B000019503970D483146E2B2012302F005FF91
:1005C000715D0B480A2908BF0121023500F070F85F
:1005D000E02DF5D10134A4B2702CE5D1054B4FF4D8
:1005E00000321A603DB0F0BD44F00F40D8ECFF1F60
:1005F00084F1FF1F48F00F4013B501F0F9FE002809
:10060000FBD00D20002100F0E9FB0DF10700FFF702
:100610009DFF9DF807305A2B02D1FFF7BCFF0CE07D
:10062000084C094923680E225B68204698472046FB
:1006300001F07DFF322000F0A7FD0D20012100F028
:10064000CDFB1CBD84F1FF1FE65C000030B54524E6
:10065000CBB02246104903A803F056FF22460F49AB
:1006600015A803F051FF0E4B0E484FF400351D60E6
:1006700027A9009415AB03AA02F058FE0A4B0024E8
:100680001D6027AB0948195D023400F011F88A2C6F
:10069000F7D14BB030BD00BF5C5C0000A15C000036
:1006A00044F00F40D8ECFF1F48F00F4084F1FF1FCB
:1006B00008B503681B68984708BDFFFF08B5054BE0
:1006C00001221A81FFF708FFFFF796FF01F0A4FE51
:1006D000FAE700BFD8ECFF1F094B60221A707F3A7F
:1006E00001331A70074B7C321A604C3A04331A609B
:1006F000054A0023136004321360044A13707047E4
:100700000040074008B0034020B00340E2ECFF1F68
:1007100070B51D4B1B6813F08001FAD11B4A1C4BAE
:100720001B6816680432156804321468F318043222
:1007300010685B19043212681B191B189B185B08A0
:100740006FEA4343134A6FEA53439BB21360124B61
:1007500030321B6816680432156804321468F318C6
:10076000043210685B19043212681B191B189B189D
:100770005B086FEA4343094A6FEA53439BB2136035
:10078000074A117070BD00BF24B003403CB0034065
:1007900038B003402CB0034058B0034030B00340A1
:1007A000E2ECFF1F024B1B7803B1B1E7704700BFBB
:1007B000E2ECFF1F102828BF1020024BC0F11000F0
:1007C0001870704710E7FF1F0D2810B504460CD9AC
:1007D000172801D80E3C07E0A0F12203DBB2052B5D
:1007E00001D9002010BD183CE4B20A4B1B780BB1B4
:1007F000FFF78EFF084B1A5D084B1A60074B1B680A
:1008000013F0800FFAD0064B1868064B1B78D840BF
:1008100010BD00BFE2ECFF1FF85C000000B0034019
:1008200010B0034010E7FF1FFEE7FEE7024B1A6817
:1008300001321A60704700BF78EDFF1F7047034A0E
:100840001368181810601846704700BF14E7FF1FA0
:100850000020704700207047FEE700BF002300E043
:100860000133C25C002AFBD11846704710B5002343
:10087000B0FBF2FC02FB1C0CBCF1090F94BF0CF1A5
:10088000300C0CF1370C5FFA8CFCB0FBF2F001F885
:1008900003C008B10133EBE75A18507006E011F8B5
:1008A00000C054780C5482F801C00130C0EB030C36
:1008B000013A6045F3DB084610BD031E10B50C4637
:1008C00002DBBDE81040D1E72D2001F8010B5842B2
:1008D000FFF7CCFF204610BD084B4FF480721A6022
:1008E0004FF400721A604FF480621A604FF4006295
:1008F0001A604FF480521A60704700BF04E100E0B4
:10090000212830B521D8042A1FD8DFE802F0090BCE
:1009100007030500092306E00B2304E00A2302E095
:10092000082300E00C23094A02EBC002526872B6A9
:100930001468074D24F47024146044F0807444EA71
:10094000034345F82010136062B630BD085D000017
:10095000E4ECFF1F094B03EBC0035A6872B613683F
:1009600023F0867323F4403343F080731360044B09
:10097000002243F8202062B6704700BF085D0000E7
:10098000E4ECFF1F134B10B51C6814F4805F1C606F
:1009900004D0114BDA680AB1DB68984714F4005FA1
:1009A00004D00D4B1A690AB11B69984714F0200F47
:1009B00004D0094B1A6E0AB11B6E984714F0100F41
:1009C00006D0054BD3F8842012B1D3F88430984771
:1009D00010BD00BFA0900440E4ECFF1F234B10B5F6
:1009E0001C6814F4803F1C6004D0214B1A680AB1C3
:1009F0001B68984714F4003F04D01D4B5A680AB195
:100A00005B68984714F0010F04D0194B1A6C0AB1B7
:100A10001B6C984714F0020F04D0154B5A6C0AB1A6
:100A20005B6C984714F0080F04D0114B9A6C0AB114
:100A30009B6C984714F0040F04D00D4BDA6C0AB18C
:100A4000DB6C984714F4002F04D0094B5A6E0AB19E
:100A50005B6E984714F4802F06D0054BD3F88020A6
:100A600012B1D3F88030984710BD00BFA0A0044059
:100A7000E4ECFF1F324B10B51C6814F0080F1C602B
:100A800004D0304B5A6A0AB15B6A984714F0100FD1
:100A900004D02C4B9A6A0AB19B6A984714F0400F15
:100AA00004D0284BDA6A0AB1DB6A984714F0800F49
:100AB00004D0244B1A6B0AB11B6B984714F0200F1B
:100AC00004D0204B5A6B0AB15B6B984714F0010FAE
:100AD00004D01C4BDA6B0AB1DB6B984714F0020FA1
:100AE00004D0184B9A6D0AB19B6D984714F0040F0F
:100AF00004D0144BDA6D0AB1DB6D984714F4007F13
:100B000004D0104BDA6E0AB1DB6E984714F4807F84
:100B100004D00C4B1A6F0AB11B6F984714F4806F06
:100B200004D0084B5A6F0AB15B6F984714F4006FFA
:100B300004D0044B9A6F0AB19B6F984710BD00BF59
:100B4000A0B00440E4ECFF1F224B10B51C6814F069
:100B5000010F1C6004D0204B9A680AB19B6898472B
:100B600014F0800F04D01C4B5A690AB15B69984796
:100B700014F0100F04D0184B9A690AB19B6998477A
:100B800014F0040F04D0144BDA690AB1DB699847FA
:100B900014F0080F04D0104B1A6A0AB11B6A984768
:100BA00014F0020F04D00C4B9A6B0AB19B6B984760
:100BB00014F0200F04D0084B1A6D0AB11B6D984732
:100BC00014F0400F04D0044B5A6D0AB15B6D984786
:100BD00010BD00BFA0C00440E4ECFF1F0A4B10B5DD
:100BE0001C6814F0020F1C6004D0084B9A6E0AB106
:100BF0009B6E984714F0010F04D0044BDA6F0AB1D2
:100C0000DB6F984710BD00BFA0D00440E4ECFF1F8D
:100C1000094B1A6842F400021A60084A0023136064
:100C2000074A1360074B4FF0FF3283F88820064BCA
:100C300003321A60704700BF3C80044000700340DC
:100C400038710340E4ECFF1F04E100E0212830B5D7
:100C50003ED80AB9013A05E04A434FF47A73B2FB31
:100C6000F3F252001B4B93FBF1F11B4B03EBC00360
:100C70005D6872B6194B93F888C060451AD0BCF114
:100C8000210F05D8D3F88C304FF0010C83F800C049
:100C9000114B124C53F8303084F8880003F5807003
:100CA000C4F88C00012083F8000183F880024FF41F
:100CB000A2732B60094BC3F89020094A13688B423A
:100CC00005D0084B00201860116003221A6062B63C
:100CD00030BD00BF00366E01085D0000E4ECFF1F70
:100CE00030710340387103400D4B012119600D4BE9
:100CF000D3F8902052B1D3F88C00B2F1FF3F80F8C6
:100D000080100CD0013AC3F89020704706490A6061
:100D1000D3F88C100A704FF0FF3283F888207047A8
:100D20003C710340E4ECFF1F3871034021280FD8C9
:100D300072B6084B93F88820824208D106490022F7
:100D40000A60D3F88C100A70013A83F8882062B6E2
:100D5000704700BFE4ECFF1F38710340014B186877
:100D6000704700BF00D00340044B054900221A60C1
:100D70000A60044A106010221A60704714D00340C1
:100D800004D0034000D003400028C0F100020DDB76
:100D900000024FF48073B0F5004F05D3013B81187A
:100DA000012B01D00846F6E7000A0FE051424FF44C
:100DB00080731202B2F5014F05D3013B5018012B8D
:100DC00001D00246F6E7100AC0F58070013B0249E7
:100DD00040EA0320086070470CD00340212810B57A
:100DE0001BD80E4A52F8303093F8804244B119B102
:100DF000012283F8802010BD012283F8002110BD5C
:100E000002EBC000436821B11A6842F003021A6085
:100E100010BD1A6802F002021A6010BD085D0000E1
:100E2000212801D900207047024B53F8303093F845
:100E300000027047085D0000212817D80C4A0129DC
:100E400002EBC0035B6852F8302004D182F88012B4
:100E50004FF4A27205E0002082F8800219B94FF425
:100E600080721A60704740F203121A60704700BF28
:100E7000085D000070B50D4601210446FFF7DCFF58
:100E8000002D02DC2046002103E0FF2D08DD204676
:100E90000121FFF7A3FF20460121BDE87040CBE709
:100EA000E31EDBB2012B94BF2D4B2E4BE21E1B68C1
:100EB00001336B431B0A142A49D8DFE802F00B11F7
:100EC000171D484823294848484848484848482F5B
:100ED000353C4200244A13604FF45172234B28E002
:100EE000234A13604FF45172224B22E0224A1360CE
:100EF00040F24442214B1CE0214A136040F244423C
:100F0000204B16E0204A136040F244421F4B10E091
:100F10001F4A136040F244421E4B0AE01E4A13600F
:100F200040F244421D4B04E01D4A13601D4B40F249
:100F300044421A6070BD1C4A136040F244421B4B8D
:100F4000F7E71B4A136040F244421A4BF1E7204690
:100F50007F2DD4BF00210121BDE870403EE700BFD6
:100F600008900340088003401090034030900440F4
:100F70001890034034900440488003401CC0044053
:100F80003080034010C00440208003400CB0044077
:100F90002880034010B004403880034014C004404F
:100FA0004080034018C004401080034004B0044057
:100FB0001880034008B004402DE9F04105460C4676
:100FC00090460027012606EA08012846FFF706FF9B
:100FD00001212046FFF702FF01370021204676005D
:100FE000FFF7FCFE082FF6B2EDD1BDE8F0812DE948
:100FF000F04105460C4690460027802606EA080187
:101000002846FFF7EBFE01212046FFF7E7FE0137F8
:1010100000212046FFF7E2FE7608082FEED1BDE85A
:10102000F0810AB91A46C7E71A46E0E72DE9F04110
:10103000002480460F462546012638460121FFF749
:10104000CDFE4046FFF7ECFE00B1354300213846A7
:1010500001347600FFF7C2FE082CF6B2EDD1284627
:10106000BDE8F0812DE9F041002480460F46254679
:10107000802638460121FFF7B1FE4046FFF7D0FE3B
:1010800000B13543002138460134FFF7A7FE76084A
:10109000082CEED12846BDE8F08102B9C6E7E1E7A9
:1010A00072B60D4B0D4A19680D4BD3F89430126887
:1010B00062B612F0806F04D04BF64E32914288BF78
:1010C00001334BF67F32521A3021B2FBF1F24FF46A
:1010D0007A7000FB0320704718E000E004ED00E0A8
:1010E000E4ECFF1F70B5CD0004466D1A01E0013D30
:1010F00015D02378002BFAD101E0013D0FD02378E1
:10110000002BFAD0FFF7CCFF064601E0013D06D0E8
:101110002378002BFAD1FFF7C3FF801B70BD00209E
:1011200070BD70B5CD0004466D1A01E0013D15D0CB
:101130002378002BFAD001E0013D0FD02378002B5B
:10114000FAD1FFF7ADFF064601E0013D06D0237856
:10115000002BFAD0FFF7A4FF801B70BD002070BDEC
:10116000212801D900207047064B29B153F83000DF
:10117000114600F50070B5E753F83000114600F550
:101180000070CEE7085D000038B50546FFF788FF20
:101190000446FFF785FF001BB0F57A7F03D3013DBE
:1011A00004D004F57A7401F037F9F2E738BD10B5D0
:1011B000FFF792FB164B0020186047F6FF710433CF
:1011C000144A196028231360083213600832136030
:1011D000083213600832136008321360083213605B
:1011E0000D4C08321360082222600C4C20600C4821
:1011F00001600C490B6089180B600B4B1A60FFF7FC
:101200006BFAFFF705FDBDE8104000F081BC00BFA0
:10121000048003400C80034000800340049003409E
:10122000089003400C900340009003401E4B40F296
:1012300003311A6842F480621A601C4B00221A7053
:101240005A709A70DA701A71194B40F213321A60A0
:10125000184A4FF451731360383A1160043A13601E
:10126000154B09221A70420B02F01F020D3B1A7037
:101270004209D2B201331A7000F01F00093318700E
:101280000422083B1A70023A11331A7004320233F6
:101290001A707E3A053B1A70B4320D3B1A70074B38
:1012A0004FF480321A607047348004407CEDFF1F99
:1012B00040A0044044A004400DA0064000E100E02E
:1012C000044A10785378984201D3C01A70474030CE
:1012D000C01A70477CEDFF1F084A11785378994275
:1012E00002D14FF0FF3070470133DBB23F2B88BF94
:1012F00000239918087A5370704700BF7CEDFF1FD8
:10130000054B19785A78914202D14FF0FF3070475F
:10131000D318187A704700BF7CEDFF1F0A4B1B687B
:1013200013F4806F0ED0094B40211A7802F0CB02E3
:101330001A70074A11701A7842F034021A70054B7D
:101340005A781A70704700BF3480044003A00640EA
:1013500011A006407CEDFF1F10B5334B1B7813F036
:10136000300F24D072B6314B1B78194633B9304B4D
:1013700040221B782F4B1A7062B618E062B62E4BD3
:101380001A7858782A4B93F800C0531CDBB23F2BD5
:1013900088BF0023834204D0274A9A1882F808C0E5
:1013A0001A460139C9B20029ECD1234B1A70234BDC
:1013B000197811F0800F28D001331B7813F0800FBB
:1013C00023D01F4B1A781C4BC2F108029878DB78A7
:1013D000D2B283420FD00133DBB2174CF92B88BF56
:1013E00000231C1994F848C0013A114CD2B284F879
:1013F00000C0002AEDD1104AD3700B4B1B7813F0BC
:10140000800F02D00D4B7C221A7011F0400F0AD0D1
:10141000054B1B7813F0400F05D0074B00221A71C3
:10142000064B3C321A7010BD04A0064016A00640C0
:1014300007A0064011A006407CEDFF1F03A0064058
:1014400014A0064008B501E000F0E6FF024B1B794E
:10145000002BF9D108BD00BF7CEDFF1F38B50F4B45
:1014600005461B6813F4806F16D00D4B9C78013431
:10147000F92C88BF002401E000F0CEFF084BDA7899
:10148000A242F9D0E21882F84850E4B201221A715F
:101490009C70044B053A1A7038BD00BF348004407C
:1014A0007CEDFF1F03A0064000F00F00092801D8C3
:1014B000303000E03730D1E710B504460009FFF7BF
:1014C000F3FF2046BDE81040EEE710B50446000EDD
:1014D000FFF7F2FF200CFFF7EFFF200AFFF7ECFF0A
:1014E0002046BDE81040E7E710B50446000AFFF7C4
:1014F000E3FF2046BDE81040DEE770B50646002455
:1015000008E00A2D02D10D20FFF7A8FF2846FFF7BB
:10151000A5FF0134355D002DF3D170BD08B50E4B2C
:101520001B6813F4806F02D108BD00F075FF0B4BF0
:1015300019790A460029F8D109494FF4803008602A
:10154000084909480A7040F2031101600430016043
:101550001A705A7008BD00BF348004407CEDFF1F34
:1015600080E100E003A0064040A00440154B40F29B
:1015700013311A6842F400621A60134A0023137090
:1015800053709370D3701371104A1160313104326B
:101590001160410B0E4A01F01F0111704109013227
:1015A000C9B2117000F01F0009321070083A1370B0
:1015B0000E321370074B2C221A70074B4FF4802207
:1015C0001A60704734800440C0EEFF1F0CB0044026
:1015D00000B0064003B0064000E100E0044A107885
:1015E0005378984201D3C01A70474030C01A7047F0
:1015F000C0EEFF1F084A11785378994202D14FF08C
:10160000FF3070470133DBB23F2B88BF00239918AE
:10161000087A5370704700BFC0EEFF1F054B197862
:101620005A78914202D14FF0FF307047D318187AA0
:10163000704700BFC0EEFF1F014B5A781A70704709
:10164000C0EEFF1F204B1B7813F0200F0ED01F4B56
:101650001F4A1878137851780133DBB23F2B88BFCB
:1016600000238B4202D09918087213701948017830
:1016700011F0800F19D0144B1B7813F0800F14D089
:10168000134A92F802C0D3789C4502D16C230370B0
:101690000BE00133DBB2272B88BF0023981890F8AA
:1016A00048C00A4880F800C0D37011F0400F0AD03B
:1016B000054B1B7813F0400F05D0054B00221A7123
:1016C000044B2C321A70704704B0064007B0064035
:1016D000C0EEFF1F03B0064008B501E000F09CFE1D
:1016E000024B1B79002BF9D108BD00BFC0EEFF1FD4
:1016F00038B50F4B05461B6813F4006F16D00D4B21
:101700009C780134272C88BF002401E000F084FE7F
:10171000084BDA78A242F9D0E21882F84850E4B2D5
:1017200001221A719C70044B553A1A7038BD00BFE3
:1017300034800440C0EEFF1F03B0064008B50E4BD6
:101740001B6813F4006F02D108BD00F065FE0B4B5F
:1017500019790A460029F8D109494FF48020086018
:10176000084909480A7040F2031101600430016021
:101770001A705A7008BD00BF34800440C0EEFF1FCD
:1017800080E100E003B006400CB00440154B40F28D
:1017900013311A6842F480521A60134A00231370FE
:1017A00053709370D3701371104A11603131043249
:1017B0001160410B0E4A01F01F0111704109013205
:1017C000C9B2117000F01F0009321070083A13708E
:1017D0000E321370074B2C221A70074B4FF48012F5
:1017E0001A6070473480044030EFFF1F08C0044087
:1017F00000C0064003C0064000E100E0044A107843
:101800005378984201D3C01A70474030C01A7047CD
:1018100030EFFF1F084A11785378994202D14FF0F8
:10182000FF3070470133DBB23F2B88BF002399188C
:10183000087A5370704700BF30EFFF1F054B1978CF
:101840005A78914202D14FF0FF307047D318187A7E
:10185000704700BF30EFFF1F014B5A781A70704776
:1018600030EFFF1F204B1B7813F0200F0ED01F4BC3
:101870001F4A1878137851780133DBB23F2B88BFA9
:1018800000238B4202D0991808721370194801780E
:1018900011F0800F19D0144B1B7813F0800F14D067
:1018A000134A92F802C0D3789C4502D16C2303708E
:1018B0000BE00133DBB2272B88BF0023981890F888
:1018C00048C00A4880F800C0D37011F0400F0AD019
:1018D000054B1B7813F0400F05D0054B00221A7101
:1018E000044B2C321A70704704C0064007C00640F3
:1018F00030EFFF1F03C0064008B501E000F08CFD8B
:10190000024B1B79002BF9D108BD00BF30EFFF1F40
:1019100038B50F4B05461B6813F4805F16D00D4B8E
:101920009C780134272C88BF002401E000F074FD6E
:10193000084BDA78A242F9D0E21882F84850E4B2B3
:1019400001221A719C70044B553A1A7038BD00BFC1
:101950003480044030EFFF1F03C0064008B50E4B33
:101960001B6813F4805F02D108BD00F055FD0B4BDE
:1019700019790A460029F8D109494FF48010086006
:10198000084909480A7040F20311016004300160FF
:101990001A705A7008BD00BF3480044030EFFF1F3A
:1019A00080E100E003C0064008C00440014B0F2264
:1019B0001A707047C020074030B50C4B0C4C1A7899
:1019C00042F0020C04EBCC056860587882F001020A
:1019D000002814BFC825882545EA014180F0010090
:1019E00044F83C1058701A7030BD00BFA0EFFF1FC4
:1019F00000E0FF1F01380E2801D90020704772B6A1
:101A0000044B03EB8003586808B142685A6062B621
:101A1000704700BFA0EFFF1F034672B6002002E030
:101A20001A885B688018002BFAD162B670470138BB
:101A30000E2801D900207047024B03EB800040685C
:101A4000EAE700BFA0EFFF1F01380E2801D90020F0
:101A50007047024B03EB8000006CDDE7A0EFFF1F37
:101A600001380E2801D900207047064B03EB800097
:101A7000036C72B6002001E05B680130002BFBD1E3
:101A800062B67047A0EFFF1F431E0E2B10B538D86B
:101A900040011C4A40F01000101872B61A4A9C18F7
:101AA00094F87C409446032C09D8DFE804F018022F
:101AB00006050830022213E00830042210E00CEB87
:101AC0008302106C08B9116402E0D2F88C205160D6
:101AD0000D4A02EB8303C3F88C1062B610BD0322DB
:101AE000634483F87C2001F1080343600A8800F016
:101AF0000803002B14BFC823882343EA0243036072
:101B000062B610BD00E0FF1FA0EFFF1F00BE7047D0
:101B100000231F490022CA50C9180833B3F5F07FCB
:101B20004A60F6D11B4B1A6842F480221A601A4BA5
:101B30006FF07F021A70184B1A7812F0800FFAD1EA
:101B4000134A1649100AC0B20870100C1431C0B202
:101B50000870120E04310A704FF0FF3234390A70E7
:101B600008310A7078390A701A78002142F0400270
:101B70001A700B4A012313706C3211707C3A137087
:101B8000084B08221A60084B92181A70704700BF61
:101B900000E0FF1F348004400C2107409C200740D8
:101BA0009420074004E100E00821074010B572B618
:101BB00001221D4B9B1813F8013C13F0080F27D08E
:101BC0001A4B910053F8314074B903EB42120830BC
:101BD0005060174A43F83120164B93F8C820013A59
:101BE00083F8C82062B610BD41F0010153F83140BE
:101BF00074B903EBC102083050600F4A43F831203A
:101C00000C4B93F8C820013A83F8C82062B610BD87
:101C100001320F2ACDD162B6064B0F3A83F8C820A5
:101C2000BDE8104000F0B8BA6C5E000000E0FF1F95
:101C300088004000A0EFFF1FC8004000F8B5A54B8A
:101C40001C7814F0040F19D0A34B93F8C92092B15B
:101C500093F8CA1031B14A1ED2B283F8CA200AB929
:101C6000FFF754FF9D4A117829B14B1EDBB2137068
:101C70000BB900F0D1FA974B04221A7014F0080245
:101C800000F03082964B1A78964B15094FEA920174
:101C900040F0AD8153F8310003EBC104800800F03F
:101CA0000F00013862680C2800F29D81DFE810F017
:101CB000580158019B019B019B019B019B019B01CA
:101CC00074019B019B019B010D001068824C012750
:101CD000C4F8CC00526840F28160C4F8D020824A37
:101CE00043F831207F4900220A618A61B4F8CC3080
:101CF000C4F8D4208342677019D8B3F5D06F80F050
:101D0000CF80B3F5817F00F0A98006D8802B00F04A
:101D10008A80822B40F0DB808AE040F202329342DC
:101D200000F0AD80B3F5A06F40F0D180ECE0B3F5EA
:101D3000106F10D004D8B3F5086F40F0C8806DE084
:101D400042F221018B4200F0088142F221218B42B4
:101D500040F0BD80B5E094F8CE3001F5E07584F830
:101D6000C9300C46236A13F0800F05D0606A08382A
:101D700000F012FA002323620834AC42F2D1564B31
:101D800000225A4D83F8C8200124594B1B1913F81F
:101D9000013C13F0080F05F8043B2FD000F01EFAA9
:101DA000504B0146A20038B1083103EB44104160AA
:101DB000504943F8321007E043F83200464B93F89D
:101DC000C820013283F8C82000F008FA454B0146CC
:101DD000A20048B142F00102083103EBC2004160A9
:101DE000414943F8321009E042F0010243F8320061
:101DF000394B93F8C820013283F8C820A100394B31
:101E0000002241F0020041F0030143F8302043F882
:101E10003120394B01349D42B7D175E094F8C93077
:101E200004F8D83F72E084F8D82084F8D9200EE076
:101E3000B4F8D0300F2B4AD884F8D82084F8D920B1
:101E40009A002E4BD3181B7813F0020F02D10227F1
:101E5000D8345BE004F8D87F022757E0B4F8D030DC
:101E600003F07F020F2A32DCB4F8CE70002F2ED19F
:101E70009A00224BD3181A7822F002020EE0B4F82E
:101E8000D03003F07F020F2A21DCB4F8CE70F7B90E
:101E90009A001A4BD3181A7842F002021A7034E0F2
:101EA000B4F8CE10B4F8D020154B5C687CB118881B
:101EB000884204D15888904201D11F8926E00C3312
:101EC000F3E7B4F8CE100F4B174619701DE0FFF77B
:101ED0006DFD42E080200740A0EFFF1F48F1FF1F8B
:101EE0009020074000E0FF1FC8004000C4200740CA
:101EF0006C5E000088004000FC200740C0200740C6
:101F0000185E0000CFF1FF1F00273C46964B20468D
:101F1000B3F8D2309F4228BF1F46402F34BF3E4601
:101F200040263146FFF748FDBF1B03D1402E14D198
:101F30003D4603E0402F34BF3D464025A4192046CE
:101F40002946FFF739FD7F1B01D1402D05D1864B76
:101F50006419C3F8D440A3F8E0700122834B41E038
:101F6000814BB3F8CC1042F22103994211D10023E6
:101F7000D05C7F4958540133072BF9D10B68862B6D
:101F800003D1794B0F2283F8CA2000200146FFF7C6
:101F900013FD784B236026E0734DD5F8D460AEB1C5
:101FA000B5F8E0403046402C28BF40242146FFF7DA
:101FB00003FDB5F8E0301B1B9BB2A5F8E0300BB970
:101FC000402C00D13319684AC2F8D430664BB3F8BC
:101FD000CC20B2F5A06F06D1002283F8CD2093F873
:101FE000CE20654B1A70614B01221A7076E05FFAC1
:101FF00081FC03EBCC04013D6168EDB212F00802F4
:10200000A1F10800584E4FEA85073ED0BF1900F0F5
:10201000C3F83B6CAE19DBB15A683A6403F10802AD
:10202000626096F87C2012B1012A04D101E00322FB
:1020300002E0022200E0042286F87C201B8804F0E3
:102040000802002A14BFC822882242EA03433DE066
:1020500096F87C30032B0DD8DFE803F040400206F1
:10206000414BED18002302E03F4BED18012385F8AA
:102070007C3033E03C4B04F00804002C14BF0324F4
:102080000224ED1885F87C4028E003EBCC035B8844
:102090004260BE1921F8083C736842800BB9706039
:1020A00002E0D6F8E43058602F4E06EB8505C5F8FF
:1020B000E40000F093F8034650B1083363602F4A00
:1020C0002C4B04F00801002908BF1346236005E0EB
:1020D000206096F8C830013386F8C830284B0822B3
:1020E0001A70ACE514F0010F24D020481E490223D9
:1020F0000370224C234B0A7001F5907501F5B07105
:102100001C60D9601A619A615D609C601E4B0D2154
:1021100019701E494FF0FF330B7008390B701831DE
:102120000A701B4A13701B4B6FF060021A70012378
:102130000370F8BD14F0800F05D0134B0D221A70F8
:102140008D3A403B1A7014F0020F05D00F4B1A78ED
:102150001A700222083B1A7014F0100F02D0084BBC
:1021600010221A70F8BD00BFA0EFFF1F9420074097
:10217000C8F1FF1FC80040009820074088004000B9
:102180008020074000E0FF1FC02007408820074054
:102190008C200740842007400C4B4822C31AB3FB15
:1021A000F2F3112B11D80A4A127822B1094A127897
:1021B0000AB1FFF7FBBC72B64FF0004131FA03F3EE
:1021C000054A11680B43136062B6704700E2FF1FB7
:1021D00068F0FF1F69F0FF1FB0E7FF1F72B60C4ADF
:1021E0001168B1FA81F3112B02D962B60020704751
:1021F0004FF00040D84021EA0001116062B6482249
:1022000053430449483AC818CA504260704700BF57
:10221000B0E7FF1F00E2FF1F38B5064C23781D46CC
:1022200033B9616804204B880B80FFF72DFC656093
:1022300038BD00BF40F1FF1F38B5084B1B785BB1BC
:10224000074C616841B14B8833B1002525720420E9
:102250000B80FFF719FC656038BD00BF69F0FF1FF8
:1022600040F1FF1F2F4B01222DE9F0410C46804623
:102270001A704FE06D682DBB2B4B1B781A4613B9B3
:10228000284B1A7017E00420FFF7EAFB072807D84D
:10229000244E01233370FFF7A1FF706090B93070B6
:1022A000013547F209539D4202D01E4B5B7A33B190
:1022B0001C4B01225A724FF0FF30BDE8F08100F054
:1022C000ABF8D9E7174A0023516853724A88C2F124
:1022D0004007BC4238BF274602F10800D21992B22B
:1022E00008184A803E4618F803C000F803C00133BE
:1022F000013EF8D13F2AB8440A4D02D805232B727B
:1023000007E04FF040030B8004202E72FFF7BCFB68
:102310006E60E41B034D002CACD12C702046BDE850
:10232000F08100BF40F1FF1F69F0FF1F07B502AB4E
:1023300003F8010D18460121FFF794FF0EBD10B5FB
:10234000084B1B786BB1084CE06818B1FFF724FF0D
:102350000023E3600320FFF74DFB10B1FFF71CFFE4
:10236000F8E710BD69F0FF1F40F1FF1F38B5094BBA
:102370001B7873B1084BDB685BB90320FFF73AFBAE
:10238000054CE06028B105881DB9FFF705FFE56041
:10239000F3E738BD69F0FF1F40F1FF1F08B5FFF7F5
:1023A000E5FF054BDB6813B94FF0FF3008BD5A88D5
:1023B0009B18187A08BD00BF40F1FF1F38B50B4DC0
:1023C000FFF7D4FFE86810B94FF0FF340CE0438802
:1023D0001A18147A02880133934204D3FFF7DCFE03
:1023E0000023EB6000E04380204638BD40F1FF1F32
:1023F00008B5074B1B78184613B10320FFF717FBEE
:10240000044BDB681BB11A885B88D31AC01808BD5F
:1024100069F0FF1F40F1FF1F7047FFFF10B5034C2D
:10242000204600F00FF8024B236010BD50F1FF1F53
:10243000885E0000024A026000220271704700BFFD
:10244000105F000010B50446FFF7F4FF044B204670
:1024500023604FF47A73A3600023237310BD00BF81
:10246000A85E0000FEF7EEBFFEF74ABFFEF734BFDE
:10247000FEF726BF084608B5FEF7F0FF012008BDAD
:1024800010B5034C204600F007F8024B236010BD46
:1024900060F1FF1FC85E000010B50446FFF7D2FFD1
:1024A000014B2046236010BD885E0000FFF714B981
:1024B000FFF7B4B8FFF79EB8FFF790B8084608B525
:1024C000FFF716F9012008BD10B5034C2046FFF7B1
:1024D000E3FF024B236010BD70F1FF1FE85E0000B8
:1024E000FFF70ABAFFF7AAB9FFF794B9FFF786B961
:1024F000084608B5FFF70CFA012008BDFFFFFFFFF3
:102500002DE9F041002604460D469046374608E086
:102510002368A95D1B682046984701363F1808F1DB
:10252000FF38B8F1000FF3D13846BDE8F08107B5A8
:10253000044B02A91B88022221F8043D03685B6852
:1025400098470EBD005F000030B504468BB096463C
:1025500022B90368C9B21B68984737E0012A08BF4F
:102560004FF00A0E29B930228DF825204FF0210CAA
:1025700019E04FF0210CB1FBFEF20EFB1212D2B2A9
:10258000092A01D8303200E037320AADD2B205EB69
:102590000C00B1FBFEF100F8242C21B10CF1FF3C42
:1025A0005FFA8CFCE7E74BB10CF1FF3C0AAA5FFA3B
:1025B0008CFC02EB0C032D2203F8242C236801A9C8
:1025C0005B6820466144CCF1220298470BB030BDD5
:1025D000002901DB002301E049422D230A22B3E751
:1025E0002DE9FF4D19460546904610461C4600222F
:1025F000002301F027FC9DF83060824618B104F1F9
:1026000000444FF0010A002700222F4B0AE0104639
:1026100019462BA3D3E9002301F0A2F901370246A2
:102620000B46FFB2B742F2D34046214600F0E6FF28
:10263000CDE9000101F02EFC0446214628460A227D
:102640005346FFF781FF8046002E35D0204601F02B
:1026500011F90B460246DDE9000100F0CDFF072E1F
:1026600028BF07262E238DF80830374601241AE0AC
:102670000022164B01F074F98B46824601F00AFCE9
:1026800004AAC0B2131900F1300203F8082C01F0BB
:1026900001F902460B465046594600F0ADFF0134A1
:1026A000013FE4B2FFB2002FE2D12B6801365B6834
:1026B000284602A9F2B29847404604B0BDE8F08D22
:1026C0009A9999999999B93F0000E03F00002440F8
:1026D0002DE9F04500248BB007468A468D682646D2
:1026E00013E00DF10408234650464146212200F034
:1026F0000BF93B68202D34BF2A4620225B68384600
:102700004146A418AD1A98473618002DE9D1304635
:102710000BB0BDE8F08500BF836899423CBF0368F9
:102720005A5470478368994201D2006818B9034827
:102730000023037070474018704700BF80F1FF1FEF
:102740008368994203D203680BB1585C704700203C
:102750007047F5E730B5046844B1002303E08D42CB
:1027600008BFE2540133E55C002DF8D130BD0068AC
:1027700000B9704701F0AEBBF8B50768044607B36F
:102780008668F6B13D4600E00135287801F0D6FBB9
:102790000028F9D1013EBE19307801F0CFFB18B105
:1027A000AE4201D3013EF7E72068721C521B8542FE
:1027B000A26002D9294601F0A7FE2268A368002181
:1027C000D1542046F8BD70B50568064645B10024D1
:1027D00003E002F05DFF28550134285D0028F8D1A0
:1027E000304670BD70B50568064645B1002403E06B
:1027F00002F040FF28550134285D0028F8D130460A
:1028000070BD8842F8B514D083688A68934212D1AB
:102810007BB106680D68002408E002F02BFF074634
:10282000285D02F027FF0134874204D1305D002883
:10283000F3D10120F8BD0020F8BDF8B516468A682E
:102840000C46C2B18368B3B19A4214D807689E425D
:1028500028BF5E1E38464FF0FF3508E0216802F0C1
:1028600051FD50B1C21BB24298BF15460130BB1991
:102870009842F3D901E04FF0FF352846F8BD826851
:102880008B68D21AD9E7836810B59A4202D34FF009
:10289000FF3010BD04680968A01802F033FD08B9C4
:1028A000013810BD001B10BD0022ECE7F8B58368AD
:1028B00004469A4202D34FF0FF30F8BD0368551C1E
:1028C0000022EF5CEA540668304602F099FB775527
:1028D000034608B90138F8BD2068181AF8BD8268A7
:1028E000013AE3E7836810B59A4202D34FF0FF3014
:1028F00010BD0468A01802F02FF908B9013810BD06
:10290000001B10BD0022EDE738B50C469AB194B11A
:102910008568AB4202D30023237038BD511EED1AE7
:102920008D4228BF0D4601682A465918204602F0FC
:1029300035FB0023635538BD10B58A68846894421E
:102940000CD3036853B1096841B1A21A981802F078
:1029500083F9D0F1010038BF002010BD002010BD68
:10296000826808B50B4612B919B9012008BD31B902
:1029700003681878D0F1010038BF002008BD006856
:1029800002F06AF9D0F1010038BF002008BD02460C
:10299000006808B10B685BB90B6823B1896811B195
:1029A00018784042704730B1936823B1007870477F
:1029B000194602F051B90020704708B5FFF7E7FF4C
:1029C000C043C00F08BD08B5FFF7E1FF0028CCBF2A
:1029D0000020012008BD08B5FFF7D9FF0028D4BFAB
:1029E0000020012008BD08B5FFF7D1FFC00F08BDCA
:1029F00008B582688B689A4201D0002008BDFFF7B5
:102A0000C6FFD0F1010038BF002008BD10B58B68AB
:102A10008468C3EB040C62450CD8006850B10968A7
:102A200041B180181A4602F063FAD0F1010038BFB4
:102A3000002010BD002010BD82688B689A4201D230
:102A4000002070470022E1E738B5054600680C46D3
:102A500060B16A688B689A4206D3096802F0EAF9A5
:102A6000A368AB6000230AE001F07AFA23682B60C8
:102A700063686B60A368AB60002323606360A3603E
:102A800038BD884210B5044601D0FFF7DDFF20466F
:102A900010BD884210B5044601D0FFF7D5FF20468F
:102AA00010BD38B504460D4600F026FB20462946E9
:102AB000FFF7CAFF204638BD38B504460D4600F082
:102AC0001BFB20462946FFF7BFFF204638BD38B51F
:102AD00004460D4600F010FB20462946FFF7B4FFE0
:102AE000204638BD38B504460D4600F005FB2046AB
:102AF0002946FFF7A9FF204638BD10B504460068F7
:102B000001F02EFA204610BD10B50446006801F011
:102B100027FA204610BD38B504460D46006801313D
:102B200001F016FE00B938BD20606560012038BD97
:102B30002DE9F84FD0F808A004460E461546BAF124
:102B4000000F76D0D1F80890B9F1000F71D09768D6
:102B5000D0F800B0C9EB0707002F07D00EE02968B6
:102B6000AA6801F0D1FCAB6807EB030B584631684B
:102B700002F0C8FB07460028F1D15AE001DBD0463D
:102B800024E0D84614E0CBEB090A594640465246A9
:102B9000D04401F0B9FC40462968AA6801F0B4FCB1
:102BA000AB689844B36809EB030BA368DB19A36017
:102BB0005846316802F0A6FB81460028E3D1404622
:102BC000594602F037F934E0CB44B84458463168EE
:102BD00002F098FB83460028F6D1D04529D06368DF
:102BE000984529D920464146FFF795FF08B323E0D1
:102BF000002A1EDB20463146FFF71FFEB0F1000819
:102C000017DBB36821684344A268C918D21AC819EF
:102C100001F034FDA3682268FB180021A360D154A1
:102C20002068AA684044296801F06EFC08F1FF3270
:102C3000DEE72046BDE8F88FA268013AD8E743688E
:102C400010B58B42044609D2FFF765FF00B910BDED
:102C5000A3681BB922680120137010BD012010BDAC
:102C600070B5836804460D46164622B1D618314623
:102C7000FFF7E5FF08B9204670BD2068A368294624
:102C8000C01802F0D7F8A660F5E710B5044600F0CA
:102C900039FA204610BD38B504460D4639B108460C
:102CA000FDF7DCFD294602462046FFF7D9FF204606
:102CB00038BD0B4610B5096804469A68FFF7D0FF87
:102CC000204610BD30B585B001AC05460A22084645
:102CD0002146FDF7CBFD2046FDF7C0FD214602460B
:102CE0002846FFF7BDFF284605B030BD10B50446A5
:102CF000FFF7E8FF204610BD30B585B001AC0546B2
:102D00000A2208462146FDF7D8FD2046FDF7A6FD1C
:102D1000214602462846FFF7A3FF284605B030BDEE
:102D200010B50446FFF7E8FF204610BD37B505464D
:102D30000A2208466946FDF799FD6846FDF78EFDB3
:102D4000694602462846FFF78BFF6C4628463EBD83
:102D500010B50446FFF7EAFF204610BD37B505461B
:102D60000A2208466946FDF7A8FD6846FDF776FD8C
:102D7000694602462846FFF773FF6C4628463EBD6B
:102D800010B50446FFF7EAFF204610BD13B5002337
:102D900004468DF80410012201A98DF80530FFF7D3
:102DA0005FFF20461CBD10B5044600F0B8F9204670
:102DB00010BD10B50446FFF7E9FF204610BD38B539
:102DC00004460D4639B10846FDF748FD294602463E
:102DD0002046FFF745FF204638BD0B469A68096834
:102DE0003EE7F8B504460E46154622B9036803B11E
:102DF0001A7000230BE01146FFF721FF074640B988
:102E0000206810B101F0ACF8276000236360A36074
:102E100004E0A5602068314602F00CF82046F8BDB9
:102E200007B500238DF80410012201A98DF80530A3
:102E3000FFF7D7FF0EBD38B504460D4600F05CF92C
:102E400020462946FFF7ECFF204638BD38B504463A
:102E50000D4600F051F920462946FFF7E1FF2046D4
:102E600038BD38B504460D4600F046F920462946DF
:102E7000FFF7D6FF204638BD38B504460D4600F0B2
:102E80003BF920462946FFF7CBFF204638BD10B559
:102E9000044600F046F9204610BD38B504460D46FC
:102EA00000F02AF920462946FFF7F1FF204638BDF9
:102EB00038B504460D4600F01FF920462946FFF7B5
:102EC000E6FF204638BD38B504460D4641B10846F8
:102ED000FDF7C4FC294602462046FFF782FF00E0CA
:102EE000A160204638BDF0B58BB00F46164601AD47
:102EF000044600F001F9294632463846FDF7B6FC93
:102F000020462946FFF7DFFF20460BB0F0BDF0B5A5
:102F10008BB00F46164601AD044600F0EDF8294689
:102F200032463846FDF7A2FC20462946FFF7CBFF84
:102F300020460BB0F0BDF0B58BB00F46164601AD84
:102F4000044600F0D9F8294632463846FDF7B5FC6C
:102F500020462946FFF7B7FF20460BB0F0BDF0B57D
:102F60008BB00F46164601AD044600F0C5F8294661
:102F700032463846FDF7A1FC20462946FFF7A3FF5D
:102F800020460BB0F0BDF0B587B00F46164601AD38
:102F9000044600F0B1F8294632463846FDF766FC93
:102FA00020462946FFF78FFF204607B0F0BDF0B559
:102FB00087B00F46164601AD044600F09DF829463D
:102FC00032463846FDF752FC20462946FFF77BFF84
:102FD000204607B0F0BDF0B587B00F46164601ADEC
:102FE000044600F089F8294632463846FDF765FC6C
:102FF00020462946FFF767FF204607B0F0BDF0B531
:1030000087B00F46164601AD044600F075F8294614
:1030100032463846FDF751FC20462946FFF753FF5C
:10302000204607B0F0BD88420B4602D009689A6876
:10303000D7E6704738B504460D4600F05DF82046E7
:103040002946FFF7F0FF204638BD38B504460D4647
:1030500000F052F820462946FFF7E5FF204638BD2C
:1030600038B50D46044600F047F83DB12846FDF757
:10307000F5FB294602462046FFF7B3FE204638BD41
:103080009A422DE9F04105460C4616461F4601D9E5
:103090003E46174600212846FFF7E2FFA3689E42FE
:1030A0000FD89F4228BF1F462368002217F80380CD
:1030B000FA54216828467118FFF705FF236803F8C2
:1030C00007802846BDE8F08110B58B680446FFF7FD
:1030D000D7FF204610BD38B50D46044600F00CF869
:1030E0003DB12846FDF7BAFB294602462046FFF7C8
:1030F00078FE204638BD00BF002303604360836034
:103100000373704770B5044608460D46FDF7A6FBED
:10311000294602462046BDE87040FFF7A1BDFFF7F3
:1031200035BE70B5044608460D46FDF797FB2946A7
:1031300002462046BDE87040FFF753BE10B5034C71
:103140002046FFF77FF9024B236010BD84F1FF1F7B
:10315000205F0000FFF770B8FFF720B9FFF72EB926
:10316000FFF746B908461146FFF77CB80846FFF757
:10317000DDB8FFFF0379084A10B552F83340012348
:1031800084F8803009010139FDD1017952F83120EC
:1031900082F8003110BD00BF085D000030B500238B
:1031A0000EE0C278084C54F83250012285F8802095
:1031B00090F803C09B1854F83C409BB284F800215F
:1031C0001AB28A42EDDB30BD085D00008378114AF7
:1031D00030B552F83340012384F8803090F802C0B3
:1031E00052F83C2082F80031013B0EE0C278094CD5
:1031F00054F83250012285F8802090F803C09B18C3
:1032000054F83C409BB284F800211AB28A42EDD1B6
:1032100030BD00BF085D00000378104A30B552F899
:103220003340012384F8803090F800C052F83C20ED
:1032300082F80031013B0DE04278084C54F83250DE
:10324000012285F8802090F801C09B1854F83C407A
:1032500084F800218B42EFD130BD00BF085D000033
:1032600070B504461546FFF7D7FF20462946BDE84E
:103270007040ABE74B1EDBB2062B04D8012301F1F3
:103280001802837102E00023837110220521E7E711
:10329000B2F1000C18BF4FF0010C02EB430201EB3E
:1032A000C202052180F806C0DAE700210A460B4673
:1032B000EEE7012202211346EAE770B504461E46F6
:1032C0000D460621FFF7CCFF204607213246FFF7C7
:1032D000C7FF204604212A46BDE87040C0E710B56C
:1032E000062104463722FFF7BBFF2046072137227D
:1032F000FFF7B6FF204604211E22BDE81040AFE7CD
:103300000A460721ACE70A460621A9E70A46042136
:10331000A6E738B505460024E1B20134002228466C
:10332000A4B2FFF79DFF082CF6D138BD2DE9F74F69
:10333000019115460121127804461F469DF83090F0
:10334000FFF78EFF002120460A460026FFF788FF80
:10335000B24695F800B033E015F80680D84513D092
:1033600020460121FFF758FFAB5D2046CBEB030B56
:103370000FFA8BF1FFF712FF20460021BA5D15F816
:103380000680FFF76DFF07E0B95D2046CAEB01013B
:10339000FFF704FF17F806A01023013BFDD1A37926
:1033A0001BB120460221FFF7E5FE1023013BFDD1B2
:1033B0006079FDF709FA019BC34623F81600013630
:1033C000F3B24B45C8D3BDE8FE8F2DE9F74F9A46BF
:1033D0009DF834300D4600939DF83C3001210446A1
:1033E0009DF830809DF8387001930026FFF738FF74
:1033F0002EE020460021009A4FF00009FFF730FF31
:10340000CB4617E0A3791BB120460121FFF7B2FE9E
:103410001023013BFDD16079FDF7D6F9019925F81C
:1034200009002046FFF7BAFE0BF1010B5FFA8BFB98
:1034300009F10209BB45E5D320460121FFF7ECFE67
:1034400020464146FFF7AAFE013605EB4705F6B2D6
:103450005645CED3BDE8FE8F2DE9F04704469DF8D2
:1034600020E09DF824C09DF8280084F803E084F84B
:1034700004C06270A3702170607108460121BDF91B
:103480002C70BDF93060BDF934509DF838A09DF81E
:103490003C80FDF7D1FC60780121FDF7CDFCA078E0
:1034A0000121FDF7C9FCE0780121FDF7C5FC207979
:1034B0000121FDF7C1FC60790021FDF7BDFC2378F7
:1034C000174A204652F83310012381F80031617801
:1034D00052F8311081F80031A17852F8311081F89A
:1034E0000031E17852F8311081F80031217952F839
:1034F000312082F80031FFF70CFF20463946324672
:103500002B46FFF7DAFEB8F1000218BF0122A271C4
:10351000204605210AEBC202BDE8F047A0E600BF45
:10352000085D000010B50446FDF798F9024603480F
:10353000214603685B68984710BD00BF84F1FF1FF8
:1035400010B5FFF7EFFF04460248FEF7F0FF001941
:1035500010BD00BF84F1FF1F2DE9F0410446204853
:10356000FFF7EEFF204601210022FFF779FE00253C
:10357000002120460A46FFF773FE00261023013B78
:10358000FDD1A3791BB120460221FFF7F3FD1023E3
:10359000013BFDD16079FDF717F90121074620466F
:1035A000FFF7FCFD0136B9B20E48FFF711F8F6B28D
:1035B0000D48FFF7B7FF702EE0D101212046FFF73D
:1035C0002BFE013501212046FFF7E8FDEDB206484C
:1035D000FFF7B6FF702DCBD10448BDE8F041AFE74F
:1035E000385F000084F1FF1F405F0000425F000071
:1035F00081F0004102E000BF83F0004330B54FEAA4
:1036000041044FEA430594EA050F08BF90EA020F10
:103610001FBF54EA000C55EA020C7FEA645C7FEAA3
:10362000655C00F0E2804FEA5454D4EB5555B8BFC6
:103630006D420CDD2C4480EA020281EA030382EA37
:10364000000083EA010180EA020281EA0303362DC9
:1036500088BF30BD11F0004F4FEA01314FF4801C9C
:103660004CEA113102D0404261EB410113F0004FAE
:103670004FEA03334CEA133302D0524263EB430365
:1036800094EA050F00F0A780A4F10104D5F1200E03
:103690000DDB02FA0EFC22FA05F2801841F100015E
:1036A00003FA0EF2801843FA05F359410EE0A5F132
:1036B00020050EF1200E012A03FA0EFC28BF4CF063
:1036C000020C43FA05F3C01851EBE37101F0004519
:1036D00007D54FF0000EDCF1000C7EEB00006EEB26
:1036E0000101B1F5801F1BD3B1F5001F0CD34908B0
:1036F0005FEA30004FEA3C0C04F101044FEA445207
:1037000012F5800F80F09A80BCF1004F08BF5FEA8D
:10371000500C50F1000041EB045141EA050130BD6D
:103720005FEA4C0C404141EB010111F4801FA4F110
:103730000104E9D191F0000F04BF01460020B1FA65
:1037400081F308BF2033A3F10B03B3F120020CDA9D
:103750000C3208DD02F1140CC2F10C0201FA0CF07B
:1037600021FA02F10CE002F11402D8BFC2F1200CE0
:1037700001FA02F120FA0CFCDCBF41EA0C01904096
:10378000E41AA2BF01EB0451294330BD6FEA0404DF
:103790001F3C1CDA0C340EDC04F11404C4F12002CA
:1037A00020FA04F001FA02F340EA030021FA04F3DC
:1037B00045EA030130BDC4F10C04C4F1200220FA33
:1037C00002F001FA04F340EA0300294630BD21FA71
:1037D00004F0294630BD94F0000F83F4801306BF37
:1037E00081F480110134013D4EE77FEA645C18BF2B
:1037F0007FEA655C29D094EA050F08BF90EA020FC2
:1038000005D054EA000C04BF1946104630BD91EAB9
:10381000030F1EBF0021002030BD5FEA545C05D1BC
:103820004000494128BF41F0004130BD14F58004FB
:103830003CBF01F5801130BD01F0004545F0FE416F
:1038400041F470014FF0000030BD7FEA645C1ABFA4
:10385000194610467FEA655C1CBF0B46024650EADB
:10386000013406BF52EA033591EA030F41F4002107
:1038700030BD00BF90F0000F04BF0021704730B58D
:103880004FF4806404F132044FF000054FF0000162
:1038900050E700BF90F0000F04BF0021704730B523
:1038A0004FF4806404F1320410F0004548BF4042F8
:1038B0004FF000013EE700BF42004FEAE2014FEA4D
:1038C00031014FEA02701FBF12F07F4393F07F4F28
:1038D00081F06051704792F0000F14BF93F07F4F5A
:1038E000704730B54FF4607401F0004521F000419D
:1038F00020E700BF50EA010208BF704730B54FF023
:1039000000050AE050EA010208BF704730B511F027
:10391000004502D5404261EB41014FF4806404F15F
:1039200032045FEA915C3FF4DCAE4FF003025FEAE1
:10393000DC0C18BF03325FEADC0C18BF033202EB69
:10394000DC02C2F1200300FA03FC20FA02F001FAC3
:1039500003FE40EA0E0021FA02F11444C1E600BF62
:1039600070B54FF0FF0C4CF4E06C1CEA11541DBF15
:103970001CEA135594EA0C0F95EA0C0F00F0DEF8E0
:103980002C4481EA030621EA4C5123EA4C5350EAC5
:10399000013518BF52EA033541F4801143F4801316
:1039A00038D0A0FB02CE4FF00005E1FB02E506F0A7
:1039B0000042E0FB03E54FF00006E1FB03569CF0FC
:1039C000000F18BF4EF0010EA4F1FF04B6F5007F02
:1039D00064F5407404D25FEA4E0E6D4146EB060674
:1039E00042EAC62141EA55514FEAC52040EA5E50FD
:1039F0004FEACE2EB4F1FD0C88BFBCF5E06F1ED8A7
:103A0000BEF1004F08BF5FEA500E50F1000041EBDD
:103A1000045170BD06F0004646EA010140EA02008A
:103A200081EA0301B4EB5C04C2BFD4EB0C0541EAAC
:103A3000045170BD41F480114FF0000E013C00F3C1
:103A4000AB8014F1360FDEBF002001F0004170BDE5
:103A5000C4F10004203C35DA0C341BDC04F11404FE
:103A6000C4F1200500FA05F320FA04F001FA05F28A
:103A700040EA020001F0004221F0004110EBD37057
:103A800021FA04F642EB06015EEA430E08BF20EA83
:103A9000D37070BDC4F10C04C4F1200500FA04F326
:103AA00020FA05F001FA04F240EA020001F00041B8
:103AB00010EBD37041F100015EEA430E08BF20EA2B
:103AC000D37070BDC4F1200500FA05F24EEA020E73
:103AD00020FA04F301FA05F243EA020321FA04F0A2
:103AE00001F0004121FA04F220EA020000EBD37059
:103AF0005EEA430E08BF20EAD37070BD94F0000F59
:103B00000FD101F00046400041EB010111F4801F8C
:103B100008BF013CF7D041EA060195F0000F18BF3D
:103B2000704703F00046520043EB030313F4801F79
:103B300008BF013DF7D043EA0603704794EA0C0F33
:103B40000CEA135518BF95EA0C0F0CD050EA410649
:103B500018BF52EA4306D1D181EA030101F00041C6
:103B60004FF0000070BD50EA410606BF10461946EE
:103B700052EA430619D094EA0C0F02D150EA0136FA
:103B800013D195EA0C0F05D152EA03361CBF10463B
:103B900019460AD181EA030101F0004141F0FE41DA
:103BA00041F470014FF0000070BD41F0FE4141F45E
:103BB000780170BD70B54FF0FF0C4CF4E06C1CEA5E
:103BC00011541DBF1CEA135594EA0C0F95EA0C0F13
:103BD00000F0A7F8A4EB050481EA030E52EA0335CE
:103BE0004FEA013100F088804FEA03334FF08055EF
:103BF00045EA131343EA12634FEA022245EA11151C
:103C000045EA10654FEA00260EF000419D4208BFCC
:103C1000964244F1FD0404F5407402D25B084FEA79
:103C20003202B61A65EB03055B084FEA32024FF425
:103C300080104FF4002CB6EB020E75EB030E22BF82
:103C4000B61A754640EA0C005B084FEA3202B6EB42
:103C5000020E75EB030E22BFB61A754640EA5C00F1
:103C60005B084FEA3202B6EB020E75EB030E22BF81
:103C7000B61A754640EA9C005B084FEA3202B6EB82
:103C8000020E75EB030E22BFB61A754640EADC0041
:103C900055EA060E18D04FEA051545EA16754FEAA3
:103CA00006164FEAC30343EA52734FEAC2025FEAC1
:103CB0001C1CC0D111F4801F0BD141EA00014FF050
:103CC00000004FF0004CB6E711F4801F04BF014321
:103CD0000020B4F1FD0C88BFBCF5E06F3FF6AFAE3D
:103CE000B5EB030C04BFB6EB020C5FEA500C50F1CD
:103CF000000041EB045170BD0EF0004E4EEA113150
:103D000014EB5C04C2BFD4EB0C0541EA045170BD56
:103D100041F480114FF0000E013C90E645EA060E9A
:103D20008DE60CEA135594EA0C0F08BF95EA0C0FC8
:103D30003FF43BAF94EA0C0F0AD150EA01347FF410
:103D400034AF95EA0C0F7FF425AF104619462CE7E7
:103D500095EA0C0F06D152EA03353FF4FDAE10464A
:103D6000194622E750EA410618BF52EA43067FF49B
:103D7000C5AE50EA41047FF40DAF52EA43057FF42B
:103D8000EBAE12E74FF0FF3C06E000BF4FF0010C36
:103D900002E000BF4FF0010C4DF804CD4FEA410C9A
:103DA0007FEA6C5C4FEA430C18BF7FEA6C5C1BD067
:103DB00001B050EA410C0CBF52EA430C91EA030FE8
:103DC00002BF90EA020F0020704710F1000F91EA45
:103DD000030F58BF994208BF90422CBFD8176FEA13
:103DE000E37040F0010070474FEA410C7FEA6C5CE1
:103DF00002D150EA013C07D14FEA430C7FEA6C5CE8
:103E0000D6D152EA033CD3D05DF8040B704700BF13
:103E10008446104662468C461946634600E000BF61
:103E200001B5FFF7B7FF002848BF10F1000F01BD33
:103E30004DF808EDFFF7F4FF0CBF012000205DF8FE
:103E400008FB00BF4DF808EDFFF7EAFF34BF012083
:103E500000205DF808FB00BF4DF808EDFFF7E0FF1C
:103E600094BF012000205DF808FB00BF4DF808ED6D
:103E7000FFF7CEFF94BF012000205DF808FB00BFD4
:103E80004DF808EDFFF7C4FF34BF012000205DF8B6
:103E900008FB00BF4A0011D212F5001211D20DD555
:103EA0006FF47873B3EB62520ED44FEAC12343F040
:103EB000004343EA505323FA02F070474FF00000EA
:103EC000704750EA013002D14FF0FF3070474FF099
:103ED0000000704700210A2201F0BEBB00220A2325
:103EE00001F018BB70B546F25C0646F25C05C0F204
:103EF0000006C0F20005761BB61007D0043D002472
:103F000055F8043F01349847A642F9D146F27006AD
:103F100046F25C05C0F20006C0F20005761B02F016
:103F200097F8B61008D0043D002455F8043F01343A
:103F30009847A642F9D170BD70BD00BF4EF6C4339C
:103F4000C1F6FF731B681818407800F0080070472E
:103F50004EF6C8330146C1F6FF73186800F008B882
:103F60004EF6C8330146C1F6FF73186801F0F0BB86
:103F70002DE9F04F01F10B04162C83B0074630D920
:103F800024F00704E30F8C422CBF194643F00101D3
:103F900000292FD1384600F0D7FBB4F5FC7F2ED294
:103FA0004FEAD40C4EF2B476C1F6FF7606EBCC02A3
:103FB000D368934200F01182596803F10808DA6867
:103FC000384621F0030499681B195C68CA6044F004
:103FD000010491605C6000F0B9FB404603B0BDE8AD
:103FE000F08F002310248C422CBF194643F00101AE
:103FF0000029CFD00C234FF000083B60EDE75FEACB
:10400000542C04BF4FEAD40C4FEA4C0540F08F808B
:104010004EF2B476C1F6FF7606EB8505EB689D425D
:1040200006D10DE0002A80F25581DB689D4207D061
:10403000596821F003010A1B0F2AF3DD0CF1FF3C44
:104040000CF1010C4EF2B4723369C1F6FF7202F149
:10405000080E734508BFD2F8049022D0586820F0AB
:104060000300011B0F2900F384810029C2F814E02A
:10407000C2F810E066DAB0F5007F80F04E81C1082A
:104080004FF0010802EBC100891008FA01F85168ED
:104090008568D86048EA0109C2F804909D60EB6029
:1040A000836001224FEAAC0302FA03F34B4554D874
:1040B00019EA030F0DD193402CF0030C19EA030FFA
:1040C0000CF1040C05D15B000CF1040C19EA030F90
:1040D000F9D006EBCC09E0464846C268904207D1C9
:1040E0005BE1002980F28381D268904200F0558123
:1040F000556825F00305291B0F29F2DD9046131999
:10410000D56844F0010058F8084F41F0010C5060A8
:104110003846C3F804C0E560AC6073613361C3F82E
:104120000CE0C3F808E0595000F010FB55E7BCF173
:10413000040F00F2DE804FEA941C0CF1380C4FEAB9
:104140004C0565E71A1803F108083846536843F030
:104150000103536000F0FAFA3FE7B5686B6823F09B
:10416000030A544504D8C4EB0A030F2B00F3A480C0
:104170004FF29419D6F80814C1F6FF7905EB0A023C
:104180000131D9F80030234408BF03F1100B06D0E9
:1041900003F580530F3323F47F6323F00F0B38466E
:1041A0005946019200F0C4FC019A411C804600F07F
:1041B0006881824200F23181D9F8043042455B4483
:1041C000C9F8043000F06681D6F808144EF2B470D5
:1041D000C1F6FF70013117BFC2EB0802C0F80884B6
:1041E0009B18C9F8043018F0070338461FBFC3F105
:1041F0000802C3F58053904403F1080208EB0B0357
:1042000008BF4FF480521B051B0DC3EB020B594630
:1042100000F08EFC431C00F04981C8EB00015944BA
:1042200041F00101D9F80430B5424FF29412C6F8BA
:1042300008805B44C1F6FF72C8F80410C9F8043066
:1042400018D0BAF10F0F40F20B81AAF10C00696887
:1042500020F007004FF0050C05EB000E0F2801F0D1
:10426000010140EA01016960CEF804C0CEF808C03F
:1042700000F220814FF29412D9F82C10C1F6FF728F
:10428000B5688B42D9F8301088BFD3624FF29412D0
:10429000C1F6FF728B4288BF13636A6822F0030283
:1042A0009442C4EB020301D80F2B05DC38464FF0D3
:1042B000000800F04BFA90E62A1943F0010344F09D
:1042C000010438466C6005F108085360B26000F0E4
:1042D0003DFA82E65918DA689C6838464D6803F161
:1042E000080845F00105E26094604D6000F02EFA88
:1042F00073E6BCF1140F9CBF0CF15B0C4FEA4C054C
:104300007FF686AEBCF1540F00F293804FEA143C66
:104310000CF16E0C4FEA4C057AE6420A042A75D974
:10432000142A9CBF02F15B094FEA490508D9542AB7
:1043300000F2C9804FEA103909F16E094FEA4905C8
:1043400006EB85054EF2B478C1F6FF78AA68AA425A
:1043500079D0516821F00301884202D292689542D7
:10436000F7D1D068D6F80490D8609A60D3608360A3
:1043700097E61D1941F00106556144F001041561ED
:1043800038465C6003F10808C5F80CE0C5F808E0A1
:104390006E60695000F0DAF91FE608F10108083094
:1043A00018F0030F7FF499AE4A461CF0030FA2F1F8
:1043B00008010CF1FF3C00F09E8012688A42F4D0A4
:1043C00072685B0093423FF6C8AE002B3FF4C5AE67
:1043D0001A4200F09580C4467BE603F108025B694F
:1043E0009A4208BF0CF1020C3FF42CAEE4E5904673
:1043F0005519D368384658F8082F6968D36041F0DA
:1044000001019A60696000F0A1F9E6E54FEA9019B0
:1044100009F138094FEA490592E7B5424EF2B47303
:10442000C1F6FF733FF4C8AE9D686A6822F00302CC
:1044300036E7BCF5AA7F19D84FEAD43C0CF1770CCB
:104440004FEA4C05E4E50125D8F804104FEAA90924
:10445000104605FA09F545EA0109C8F8049083E712
:1044600001234546C8F80430002219E740F25453AE
:104470009C450BD84FEA944C0CF17C0C4FEA4C0550
:10448000C6E5B5686A6822F0030209E7FC254FF02B
:104490007E0CBDE51105090D00297FF495AEB268CB
:1044A0000BEB0A0141F001015160E3E601214FF0FD
:1044B000000BB7E6384605F10801019201F048F912
:1044C000019A5368D6E6B2F5AA7F06D84FEAD039EA
:1044D00009F177094FEA490532E740F25451FC25CA
:1044E0008A424FF07E099EBF4FEA904909F17C094C
:1044F0004FEA490524E7726822EA0302726060E726
:104500005B0008F1040863E7032A2DE9F00F09D8DE
:104510002AB10023CC5CC45401339342FAD1BDE8E4
:10452000F00F7047830702440ED0441C4D1C15F851
:10453000017C04F00306234601342946013504F8C2
:10454000027C002EF3D100E0034611F003046DD08D
:10455000D71A0D1B032F2E6819DDC4F1040C4FEA86
:10456000C4081C1D4FEACC0C55F8047FC4EB0209AB
:10457000234604310434B9F1030F26FA08FA07FA86
:104580000CFB3E464BEA0A0744F8087CECDC9A42F6
:10459000C5D901330131013211F8014C0133013128
:1045A000934203F8024CF7D1B9E70C68403340312D
:1045B00043F8404C51F83C4C43F83C4C51F8384CD3
:1045C00043F8384C51F8344C43F8344C51F8304CE3
:1045D00043F8304C51F82C4C43F82C4C51F8284CF3
:1045E00043F8284C51F8244C43F8244C51F8204C03
:1045F00043F8204C51F81C4C43F81C4C51F8184C13
:1046000043F8184C51F8144C43F8144C51F8104C22
:1046100043F8104C51F80C4C43F80C4C51F8084C32
:1046200043F8084C51F8044C43F8044CD41A3F2C7E
:10463000BBDC11E00C681033103143F8104C51F81A
:104640000C4C43F80C4C51F8084C43F8084C51F80A
:10465000044C43F8044CD41A0F2CEBDC032C96DDED
:104660001C1D0D1D55F8047C161B234629460434D9
:104670000435032E44F8087CF4DC88E78842F0B463
:1046800011D98C18A0420ED28518531E4AB121466A
:104690002A4611F8014D013BB3F1FF3F02F8014DED
:1046A000F7D1F0BC70470F2A47D941EA00039B07B6
:1046B00045D10C4603461546266810331034103D8C
:1046C0000F2D43F8106C54F80C6C43F80C6C54F834
:1046D000086C43F8086C54F8046C43F8046CEBD88D
:1046E000A2F1100502F00F0425F00F051035032C80
:1046F00000EB0503294424D9A4F1040C1D460C4603
:104700004FEA9C0C01EB8C07043754F8046BBC4255
:1047100045F8046BF9D10CF1010402F00302A40086
:1047200009191B19002ABCD001399A1811F8014F38
:1047300003F8014B9342F9D1B3E70346F2E703468E
:10474000F2E72246EEE700BF704700BF704700BFA8
:104750004EF6C8330A46C1F6FF730146186800F0EA
:1047600001B800BF2DE9F04F0C4683B081461746D3
:10477000002900F01C8107F10B05FFF7E5FF54F855
:10478000042C162DA4F1080A22F0030675D8102176
:1047900000230D46BD4238BF43F00103002B40F01B
:1047A0000C818E426EDA4EF2B47B0AEB0600C1F643
:1047B000FF7BDBF808E0864500F00481D0F804C0F8
:1047C0002CF001088044D8F8048018F0010F1CBFB9
:1047D0009C4660466FD0D30700F1C38054F8083C74
:1047E000C3EB0A035A6822F00302921901920028CF
:1047F0006CD0704500F037810CEB0208884565DB12
:10480000C1681F468068321F242A8860C16057F83B
:10481000080FD968C160886000F27881132A9CBFB4
:10482000394620461FD921681B2A98BF04F1080089
:1048300099606168D96098BF03F1100113D9A1682C
:10484000242A14BF04F1100004F118001961E16872
:10485000596111BF03F11801226903F120019A6126
:1048600004BF6269DA6102683C460A609A4642689F
:104870004A6082688A605A6805E025F00705294683
:10488000EB0F87E7B046C5EB08030F2B55D80AEBB3
:10489000080302F0010242EA0802CAF804205A683A
:1048A00042F001025A6048462746FFF74FFF38465C
:1048B00003B0BDE8F08F2CF0030C0CEB0608884524
:1048C00089DBC3688168CB609960DCE7019A8A4222
:1048D00047DB1F46D968321F57F8080F242AC160EA
:1048E000886000F2B180132A9CBF394620461FD948
:1048F00021681B2A98BF04F1080099606168D9609B
:1049000098BF03F1100113D9A168242A14BF04F140
:10491000100004F118001961E168596111BF03F139
:104920001801226903F120019A6104BF6269DA610A
:1049300002683C46DDF8048097E70AEB050102F0C7
:104940000102CE18154343F00103CAF804504B602E
:1049500048467368083143F00103736000F0F8FEC5
:10496000A1E739464846FFF703FB0746D8B154F89C
:10497000042CA0F1080122F001035344994200F0F5
:10498000BF80321F242A6AD8132A9CBF03462246BE
:1049900039D8116819605168596092689A60484620
:1049A000214600F0D5FE4846FFF7D0FE7FE71146CE
:1049B00003B0BDE8F04FFFF7DBBA0C230027C9F8BE
:1049C000003074E7DEF8043005F1100023F0030C2A
:1049D0000CEB06038342B8BF7046FFF6FCAE0AEB51
:1049E00005025B1B43F0010348465360274654F819
:1049F000043CCBF8082003F001031D4344F8045C99
:104A0000FFF7A4FE53E723681B2A98BF04F10802AE
:104A100003606368436098BF00F10803B9D9A368D5
:104A2000242A14BF04F1100204F118028360E36821
:104A3000C36011BF00F11003216900F11803016187
:104A400004BF61694161A4E7214638460093FFF73E
:104A500015FE9DE808013C469A465A6813E7214630
:104A6000FFF70CFE9BE7019805F110020CEB000824
:104A70009045FFF62BAF1F46D968321F57F8080F35
:104A8000242AC16088604BD8132A9CBF3A4621462D
:104A90001FD921681B2A98BF03F110029960616831
:104AA000D96098BF04F1080113D9A168242A14BF62
:104AB00003F1180203F120021961E168596111BF85
:104AC00004F11001206904F11801986104BF6069C4
:104AD000D8610868106048685060896891605A1908
:104AE000C5EB080141F00101484651605968CBF817
:104AF000082001F001010D435D60FFF727FED6E6B7
:104B000050F8043C23F00308B044BCE62146384684
:104B10000093FFF7B3FD009B3C469A465A68B2E605
:104B2000384621460093FFF7A9FD009BD7E700BF59
:104B300038B54FF2D014C1F6FF740546084600237D
:104B40002360FBF77CFE431C00D038BD2368002B9C
:104B5000FBD02B6038BD00BFC9B2F0B400294BD0E8
:104B600083070FD00378002B73D0994242D0431CA7
:104B700005E013F8012B002A3BD091423AD09A0766
:104B80001846F6D1036841EA0127A3F1013247EA4A
:104B9000074722EA030212F0803F1CD17B40A3F1B9
:104BA000013222EA030313F0803F14D1021D02E018
:104BB00014F0803F0FD1104652F8043BA3F10136A8
:104BC00087EA030426EA0303A4F1013513F0803FCA
:104BD00025EA0404ECD00378002B3AD0994209D09E
:104BE000431C01E0914205D0184613F8012B002A1E
:104BF000F8D11046F0BC704781070DD00378002B28
:104C0000F8D0431C02E00278002AF3D013F0030F1F
:104C1000184603F10103F6D10368A3F1013222EA39
:104C2000030313F0803F0AD1021D104652F8041B03
:104C3000A1F1013424EA010111F0803FF5D003789D
:104C4000002BD7D0431C184601330278002AFAD132
:104C5000D0E71846CEE700BF80EA010212F0030F4A
:104C600040F03A8010F0030220F0030021F003012D
:104C700050F804CB08BF51F8043B0DD082F003027A
:104C80004FEAC2026FF07F4323FA02F251F8043B6D
:104C90004CEA020C43EA0203ACF101329C4501BF2D
:104CA00022EA0C0212F0803F50F804CB51F8043B8A
:104CB000F2D04FEA0C604FEA1C2C012828BFB0EB61
:104CC000036F08BF1B0AF4D003F0FF034FEA106024
:104CD000A0EB0300704700BF10F0030F0AD010F8DC
:104CE000012B11F8013B012A28BF9A42F4D0A2EB14
:104CF000030070474DF8045D4DF8044D4FF001027C
:104D000042EA022242EA024201F0030C21F00301CE
:104D100050F8044B51F8045BBCF1020F26D04BD87D
:104D200024F07F4CBCEB152FA4EB020323EA040311
:104D30000DD113EAC21308BF51F8045B0AD18CEA03
:104D4000040CBCEB056F0CD150F8044BE8E74FEABC
:104D500015255CE033F07F4352D10D784FEA146C97
:104D600055E04FEA146C05F0FF0550E04FEA044CA3
:104D7000A4EB02034FEA1C4C23EA0403BCEB154FDF
:104D800017D113EAC21308BF51F8045B07D18CEAAC
:104D9000040CBCEB054F08D150F8044BE6E71B04AC
:104DA0002ED10D884FEA144C31E04FEA05454FEA09
:104DB000144C4FEA15452AE004F0FF0CBCEB156FCC
:104DC000A4EB020323EA04030DD113EAC21308BFC4
:104DD00051F8045B0AD18CEA040CBCEB052F0AD114
:104DE00050F8044BE8E74FEA156510E014F0FF0FA8
:104DF00006D051F8045B4FEA142C25F07F4506E0FD
:104E00004FF000005DF8044B5DF8045B70470CF058
:104E1000FF0205F0FF00012828BF904204BF4FEABF
:104E20001C2C2D0AF3D0A2EB00005DF8044B5DF8BA
:104E3000045B704780EA0102844612F0030F4FD1F1
:104E400011F0030F32D14DF8044D11F0040F51F859
:104E5000043B0BD0A3F101329A4312F0803F04BF10
:104E60004CF8043B51F8043B16D100BF51F8044BF9
:104E7000A3F101329A4312F0803FA4F101320BD129
:104E80004CF8043BA24312F0803F04BF51F8043BAE
:104E90004CF8044BEAD023460CF8013B13F0FF0F0B
:104EA0004FEA3323F8D15DF8044B704711F0010F3E
:104EB00006D011F8012B0CF8012B002A08BF70470F
:104EC00011F0020FBFD031F8022B12F0FF0F16BF06
:104ED0002CF8022B8CF8002012F47F4FB3D17047CE
:104EE00011F8012B0CF8012B002AF9D1704700BFF3
:104EF00070B4002A45D041EA000313F0030329D11E
:104F0000032A27D905680C68A54223D1141F3AD07B
:104F1000A5F1013222EA050515F0803F0DD03AE0F7
:104F20005B686A68A3F10135934225EA03052ED137
:104F3000043C28D015F0803F27D10D4603460431AC
:104F40000430032CECD8661E2CB91C792A79A01ADF
:104F500070BC7047561E04780A789442F7D1C6B1E7
:104F60008CB101368B1C891904E08B4203F10103DB
:104F70000BD044B113F8012C10F8014F9442F4D037
:104F8000E5E71046E4E72046E2E70020E0E7661E9A
:104F9000E1E73046DCE71846DAE700BF41EA000304
:104FA00013F0030F034670B425D0AAB10C78013A70
:104FB00003F8014B4CB11C4672B111F8015F013A84
:104FC00004F8015B2346002DF6D12AB19A1800217E
:104FD00003F8011B9342FBD170BC70470E4651F899
:104FE000044BA4F1013525EA040515F0803F05D1F5
:104FF000043A43F8044B032AF0D8D6E73146D4E705
:1050000038B502460C4659B1002501E0421C054660
:1050100010462146FFF7A0FD0028F7D1284638BDED
:10502000BDE83840FFF798BD2DE9F00701273C4661
:1050300000254FF0FF36631900EB060C8B420DD2B2
:105040001CF804C010F80380E0452ED201241D4650
:105050009F1B63198B4200EB060CF1D34FF0010A42
:10506000002554464FF0FF3C1760631900EB0C0815
:1050700099420ED918F8048010F80390C1451AD946
:1050800001241D46CCEB030A6319994200EB0C087E
:10509000F0D80CF101000136B0423CBFBA463046B0
:1050A000C2F800A0BDE8F00770470BD001272E46DC
:1050B0003C46ED19BFE709D04FF0010AAC46544613
:1050C0005544D2E7BC4205D00134B4E7544505D07D
:1050D0000134CAE727461D460124ACE7A2461D4617
:1050E0000124C2E72DE9F04FADF2244D164680466B
:1050F0000C461046194607AA1D46FFF795FF07AB59
:105100000DF21C42039043F8045F9342FBD16F1EE3
:10511000002308A835B1F25CF91A0133AB4240F81C
:105120002210F8D107993046039A711800F024FC38
:1051300000287FD1DDF80CC0224682466F1E0CF19C
:10514000FF3CCDF808C0B444CDF814C0DDF80CC065
:1051500004460195CCF1010CCDF810C009E034B142
:10516000079A93423EBF04460199C2EB01039A4459
:105170002A46019B08EB020000210AEB0305AA1A4C
:1051800000F0B0FB00284FD1002D4DD008EB0503F7
:1051900008A913F8013C51F82330002BDFD1039A02
:1051A000944228BF2246BA4211D208EB0A0316F8ED
:1051B00002C0B118985C844506D02FE011F8010FA9
:1051C00013F802C0844529D10132BA42F6D3039BB9
:1051D00002989C4228BF184618D2DDF808C008EB98
:1051E0000A0316F80C1013F80C20914240F0858049
:1051F000059A06EB040B06E013F801C012F8019DB6
:10520000E14503D10846411E5A45F5D10134844297
:1052100075D8079C019BA2441C1BA9E7DDF810C0B0
:105220000024E2449244A3E7002009B00DF5806D0C
:10523000BDE8F08FDDF80CC04FF0000ADDF80CB0CF
:105240000DF12009CCEB05036F1E634538BF6346A3
:105250002246013307930CF1FF330193039BB444BF
:10526000CDF808C0C3F1010304930AEB050408EB71
:1052700002000021A21A00F035FB0028D4D1002C36
:10528000D2D008EB040313F8013C59F8233063BB78
:10529000BB4508EB0A0015D2DDF808C010F80B304A
:1052A0009CF800209A4218BF5B4621D1029A5B46C7
:1052B00005E012F8011F10F803C08C4518D1013326
:1052C000BB42F6D3019B5A1CAFD0DDF804C016F8E0
:1052D0000C1010F80C20914206D113F1FF33A4D327
:1052E000F15CC25C9142F8D0079B9A442246BCE72D
:1052F000DDF810C0E2449A44F8E7039886E708EB2B
:105300000A0092E72DE9F04F8046037887B00E46F9
:10531000002B00F0F7800A789AB18446013101270A
:1053200002E011F8012B5AB1934214BF002707F095
:1053300001071CF8013F0D46002BF2D12B7803BB6F
:105340001FB1404607B0BDE8F08F08F10100317889
:10535000FFF702FCAD1B012D18BF0028074608BF50
:105360008046EED0A844404594BFC0EB0804012419
:105370001F2D09D9214632462B46FFF7B3FE804642
:10538000DFE74FF00008DCE7294605AA3046FFF7C3
:105390004BFE0599711801903046019A00F0ECFA25
:1053A000002852D1019B83468046013B0093F318AD
:1053B0000393019BC3F101030293224608EB05040A
:1053C000B8180021A21A00F08DFA0028D9D1002CBB
:1053D000D7D0019B9B4528BF5B469D4213D9F91846
:1053E000F05CF21811F80810884240F0858007EB55
:1053F000080C05E012F8011F1CF8030088427BD15D
:1054000001339D42F6D89DE80A005B457DD907EB44
:105410000809725C19F801309A4276D1039B06EBB9
:105420000B0A06E019F8020013F801CD844503D1F8
:1054300011464A1E5345F5D10BF1010B8B4566D839
:10544000059B9844C3EB050BB7E701984FF0000BA1
:1054500022462B1A06EB000900F1FF3882468342F0
:1054600038BF03463918013300910593C0F1010399
:1054700002930BEB0504B8180021A21A00F032FACF
:1054800000287FF47EAF002C3FF47BAF554598BFDA
:1054900007EB0B0014D9009899F8002010F80B3096
:1054A0009A4224D14A46534607EB0B0005E012F816
:1054B000011F10F803C08C451AD101339D42F6D864
:1054C000B8F1FF3F43463FF45AAF16F8081010F802
:1054D0000820914207D113F1FF33FFF450AFF15C84
:1054E000C25C9142F7D0059B9B442246C1E75346DC
:1054F000029A93449B44F8E702994FF0000B8844CA
:1055000098445AE70D46012718E7019994E7B844F3
:1055100017E700BF2DE9F04F4EF6C434C1F6FF7413
:1055200085B099460B46D4F80080029103901C4642
:1055300014F8015B08EB05012346497801F00801E6
:10554000C9B20029F3D12D2D7BD02B2D05BF2446C8
:105550000B460B4614F8015B39F0100112D1D9F15A
:10556000010038BF0020302D04D058B14FF00A0997
:10557000CB4608E0217801F0DF01582965D008B159
:105580004FF00809CB46002B59460CBF6FF0004680
:105590004FF000468DE80C003046002700F04EFB2F
:1055A00030468A46594600F01BFABC469DE80C007E
:1055B00016E0303DA94525DD844594BF0021012139
:1055C00051EAD77729D15545D4BF0021012184451F
:1055D00018BF002109BB0BFB0C5C012714F8015B11
:1055E00008EB0501497801F00406F6B2002EE0D17F
:1055F00011F0030106D0012914BF572137216D1A7C
:10560000A945D9DC791C0BD0C3B9604612B197B952
:10561000029B136005B0BDE8F08F4FF0FF37DDE768
:105620000399002B0CBF6FF000404FF00040222385
:105630000B60002AEED0013C0294E9E7CCF1000CAB
:10564000E3E714F8015B012386E74FF01009657862
:10565000CB46023497E700BF30B44EF6C834C1F6EB
:10566000FF740D46134601462A46206830BCFFF7FA
:1056700051BF00BF4EF6C433C1F6FF731B681B1841
:105680005B7803F00303012B08BF2030704700BF95
:105690004EF6C433C1F6FF731B681B185B7803F02A
:1056A0000303022B08BF2038704700BFF8B54EF245
:1056B000B474C1F6FF740F460546FFF745F8A368BA
:1056C0005E6826F0030606F6EF73DF1B3F0B013F13
:1056D0003F03B7F5805F07DB00212846FFF728FA74
:1056E000A3689B19984204D02846FFF72FF80020A2
:1056F000F8BD79422846FFF71BFA013010D04FF26F
:105700009813A168C1F6FF73F61B284646F0010600
:105710001A684E60D71B1F60FFF718F80120F8BD0C
:1057200000212846FFF704FAA368C21A0F2ADBDD1E
:105730004EF6BC344FF29811C1F6FF74C1F6FF71FA
:1057400042F001025A602368C01A0860CCE700BF2B
:105750002DE9F0410E46804600295CD0FEF7F4FFAB
:105760004EF2B47556F8041CC1F6FF75A6F1080494
:1057700021F00103AF68E2189742506820F003005F
:1057800067D011F00101506035D0002116187668FD
:1057900016F0010F06D11B18906800294DD0D26871
:1057A000C260906043F00102E3506260F1B9B3F56A
:1057B000007F32D35A0A042A6CD898093830410045
:1057C00005EB81054EF2B471C1F6FF71AA68AA42D9
:1057D0006BD0516821F003018B4202D2926895424E
:1057E000F7D1D368E360A260D4609C604046BDE816
:1057F000F041FEF7ABBF56F8086C05F1080CA41B8E
:105800009B19A668664543D0D4F80CC0C6F80CC0F6
:10581000CCF80860BAE7BDE8F081DB0801216868D0
:1058200005EBC3029B1001FA03F3E2609168184391
:105830006860A160CC609460D8E7294EB042AED1D8
:105840006C6143F001022C61E060A0606260E35093
:10585000CCE7C018CB0707D456F8083CE41AC018A8
:10586000A268E368D3609A604EF6C03240F001034C
:10587000C1F6FF726360AC6013689842B6D34FF212
:1058800094134046C1F6FF731968FFF70FFFADE7A9
:1058900001217BE702F15B004100142A90D9542AD0
:1058A0000CD8180B6E3041008AE701264D68801035
:1058B000134606FA00F005434D6093E7B2F5AA7F60
:1058C00003D8D80B773041007AE740F254518A422E
:1058D00003D8980C7C30410072E7FC217E206FE7F2
:1058E000BCE7FF1F8307C9B270B440D0541E002A22
:1058F0003FD003788B4221D0431C04E004B30278EC
:10590000013C8A421AD013F0030F184603F1010339
:10591000F4D1032C16D8651E94B103788B420DD0B8
:10592000421C002302E004788C4207D09D421046BE
:1059300003F1010302F10102F5D1002070BC7047B0
:105940002046FBE741EA012646EA064602460430C5
:1059500013687340A3F1013525EA030313F0803F78
:1059600003D1043C032CF1D8D5E71046D3E7144605
:10597000CFE71046E2E700BF032A70B422D941EA1C
:1059800000039B0713D00578013A0C780023A54249
:1059900006D01BE010F8015F11F8014FA54215D1A8
:1059A000934203F10103F5D1002070BC70470C460F
:1059B0000346043104301E682568AE4208D1043A1B
:1059C000032AF4D8002ADED11046EEE7281BECE7C4
:1059D00021461846002AD6D1F6E700BFFFFFFFFF99
:1059E0004A1E08BF7047C0F02481884240F21681E9
:1059F000114200F01781B0FA80F3B1FA81F2A2EB04
:105A00000303C3F11F0304A202EB03134FF00002D0
:105A10009F4600BFAFF30080B0EBC17F00BF42EBF9
:105A2000020228BFA0EBC170B0EB817F00BF42EB48
:105A3000020228BFA0EB8170B0EB417F00BF42EBB8
:105A4000020228BFA0EB4170B0EB017F00BF42EB28
:105A5000020228BFA0EB0170B0EBC16F00BF42EBA8
:105A6000020228BFA0EBC160B0EB816F00BF42EB28
:105A7000020228BFA0EB8160B0EB416F00BF42EB98
:105A8000020228BFA0EB4160B0EB016F00BF42EB08
:105A9000020228BFA0EB0160B0EBC15F00BF42EB88
:105AA000020228BFA0EBC150B0EB815F00BF42EB08
:105AB000020228BFA0EB8150B0EB415F00BF42EB78
:105AC000020228BFA0EB4150B0EB015F00BF42EBE8
:105AD000020228BFA0EB0150B0EBC14F00BF42EB68
